:020000040800F2
:100000000028002091150008DD0E0008E30E00080E
:10001000E90E0008EF0E0008F50E000800000000D1
:10002000000000000000000000000000FB0E0008BF
:10003000070F000800000000130F00081F0F000842
:10004000D9150008D9150008D9150008D9150008D8
:10005000D9150008D9150008D9150008D9150008C8
:10006000D9150008D9150008D9150008D9150008B8
:10007000D9150008D9150008D9150008D9150008A8
:10008000D9150008D9150008D9150008D915000898
:10009000D9150008D9150008D9150008D915000888
:1000A000D9150008D9150008D9150008D915000878
:1000B0002D0F0008D915000800000000D915000810
:1000C000D91500080000000000000000D915000844
:1000D00000000000D9150008D91500080000000034
:1000E000D9150008D9150008D9150008000000002E
:1000F0000000000000000000000000000000000000
:0C01000000000000000000005FF808F1A3
:10010C0010B5054C237833B9044B13B10448AFF345
:10011C0000800123237010BD180000200000000097
:10012C00202C000808B5034B1BB103490348AFF35F
:10013C00008008BD000000001C000020202C0008DE
:10014C0080B582B000AF0346FB71FB79052B6FD8ED
:10015C0001A252F823F000BF7D0100089D010008A8
:10016C00BD010008DD010008FD0100081D020008AA
:10017C0001222021304801F02CFD002240212E4884
:10018C0001F027FD002280212B4801F022FD4FE0D9
:10019C0000222021284801F01CFD00224021264885
:1001AC0001F017FD01228021234801F012FD3FE0F0
:1001BC0000222021204801F00CFD012240211E4884
:1001CC0001F007FD002280211B4801F002FD2FE009
:1001DC0001220421184801F0FCFC002208211648D9
:1001EC0001F0F7FC00221021134801F0F2FC1FE093
:1001FC0000220421104801F0ECFC002208210E48DA
:10020C0001F0E7FC012210210B4801F0E2FC0FE0A9
:10021C0000220421084801F0DCFC012208210648D8
:10022C0001F0D7FC00221021034801F0D2FC00BFE2
:10023C0000BF0837BD4680BD0008014080B582B0C4
:10024C0000AF0346FB71FB79022B14D0022B19DC97
:10025C00002B02D0012B07D014E00020FFF770FF19
:10026C000320FFF76DFF0DE00120FFF769FF04206D
:10027C00FFF766FF06E00220FFF762FF0520FFF79D
:10028C005FFF00BF00BF0837BD4680BD80B582B0A0
:10029C0000AF0346FB71FB79022B18D0022B1FDC3D
:1002AC00002B02D0012B09D01AE020210E4801F0BE
:1002BC00A8FC04210C4801F0A4FC11E080210A48A0
:1002CC0001F09FFC1021084801F09BFC08E0402144
:1002DC00054801F096FC0821034801F092FC00BF90
:1002EC0000BF0837BD4680BD0008014080B582B014
:1002FC0000AF78607B68092B00F2C08101A252F834
:10030C0023F000BF390300088D030008E103000847
:10031C003504000889040008DD04000831050008D4
:10032C0085050008D90500082D060008002280214B
:10033C00D04801F04EFC00224FF48071CE4801F001
:10034C0048FC00224FF40071CB4801F042FC002223
:10035C004FF48061C84801F03CFC00224FF400616E
:10036C00C54801F036FC00224FF48051C24801F020
:10037C0030FC01224FF40051BF4801F02AFCA7E1E8
:10038C0001228021BB4801F024FC00224FF4807133
:10039C00B94801F01EFC00224FF40071B64801F080
:1003AC0018FC01224FF48061B34801F012FC0122C9
:1003BC004FF40061B04801F00CFC01224FF4805165
:1003CC00AD4801F006FC01224FF40051AA4801F09F
:1003DC0000FC7DE100228021A64801F0FAFB0022FE
:1003EC004FF48071A44801F0F4FB01224FF400712A
:1003FC00A14801F0EEFB00224FF480619E4801F011
:10040C00E8FB00224FF400619B4801F0E2FB012263
:10041C004FF48051984801F0DCFB00224FF400515E
:10042C00954801F0D6FB53E100228021914801F060
:10043C00D0FB00224FF480718F4801F0CAFB0022E0
:10044C004FF400718C4801F0C4FB00224FF4806122
:10045C00894801F0BEFB01224FF40061864801F08F
:10046C00B8FB01224FF48051834801F0B2FB00220B
:10047C004FF40051804801F0ACFB29E101228021AE
:10048C007C4801F0A6FB00224FF480717A4801F001
:10049C00A0FB00224FF40071774801F09AFB012277
:1004AC004FF48061744801F094FB01224FF4006119
:1004BC00714801F08EFB00224FF480516E4801F020
:1004CC0088FB00224FF400516B4801F082FBFFE0E7
:1004DC0000228021674801F07CFB01224FF48071DF
:1004EC00654801F076FB00224FF40071624801F080
:1004FC0070FB00224FF480615F4801F06AFB01221F
:10050C004FF400615C4801F064FB00224FF4805111
:10051C00594801F05EFB00224FF40051564801F09F
:10052C0058FBD5E000228021524801F052FB0122F9
:10053C004FF48071504801F04CFB00224FF40071D5
:10054C004D4801F046FB00224FF480614A4801F00F
:10055C0040FB00224FF40061474801F03AFB0022B7
:10056C004FF48051444801F034FB00224FF4005109
:10057C00414801F02EFBABE0002280213D4801F008
:10058C0028FB00224FF480713B4801F022FB002233
:10059C004FF40071384801F01CFB01224FF48061CC
:1005AC00354801F016FB01224FF40061324801F08E
:1005BC0010FB01224FF480512F4801F00AFB01225D
:1005CC004FF400512C4801F004FB81E00022802103
:1005DC00284801F0FEFA00224FF48071264801F001
:1005EC00F8FA00224FF40071234801F0F2FA0022CD
:1005FC004FF48061204801F0ECFA00224FF40061C6
:10060C001D4801F0E6FA00224FF480511A4801F01F
:10061C00E0FA00224FF40051174801F0DAFA57E0E3
:10062C0000228021134801F0D4FA00224FF480718B
:10063C00114801F0CEFA00224FF400710E4801F07F
:10064C00C8FA00224FF480610B4801F0C2FA012273
:10065C004FF40061084801F0BCFA00224FF48051BD
:10066C00054801F0B6FA00224FF40051024801F09F
:10067C00B0FA2DE0000C014000080140002280215E
:10068C00154801F0A6FA00224FF48071134801F0CE
:10069C00A0FA00224FF40071104801F09AFA0022DF
:1006AC004FF480610D4801F094FA00224FF4006180
:1006BC000A4801F08EFA00224FF48051074801F0ED
:1006CC0088FA00224FF40051044801F082FA00BF6E
:1006DC0000BF0837BD4680BD000C0140000801403A
:1006EC0080B582B000AF78607B68032B72D801A212
:1006FC0052F823F011070008450700087907000895
:10070C00AD07000801220821354801F062FA354B8B
:10071C001B681846FFF7EAFD00220121304801F062
:10072C0058FA012202212E4801F053FA0122042129
:10073C002B4801F04EFA4EE001220121284801F02D
:10074C0048FA284B5B681846FFF7D0FD00220221BF
:10075C00234801F03EFA01220421214801F039FA24
:10076C00012208211E4801F034FA34E00122012153
:10077C001B4801F02EFA01220221194801F029FA36
:10078C00184B9B681846FFF7B1FD00220421144852
:10079C0001F01FFA01220821114801F01AFA1AE09F
:1007AC00012201210E4801F014FA012202210C4809
:1007BC0001F00FFA01220421094801F00AFA094B51
:1007CC00DB681846FFF792FD00220821044801F06F
:1007DC0000FA00E000BF00BF0837BD4680BD00BF77
:1007EC00000C01406400002080B483B000AF78603E
:1007FC0039607B68184A82FB03129210DB17D31AFC
:10080C00164A13607968144B83FB01239A10CB179B
:10081C00D21A13469B0013445B00CA1A0F4B5A6042
:10082C003B680D4A82FB03129210DB17D31A0B4A5A
:10083C0093603968084B83FB01239A10CB17D21AAB
:10084C0013469B0013445B00CA1A044BDA6000BFCA
:10085C000C37BD4680BC7047676666666400002036
:10086C0080B500AF0C4B1B68002B13D0282000F078
:10087C00BBFB0A4B1B6801335A4203F0030302F023
:10088C00030258BF5342054A1360044B1B681846B9
:10089C00FFF726FF00BF80BD7C0000203400002045
:1008AC0080B483B000AF0B4B00221A6000237B6036
:1008BC0007E0094A7B68002142F823107B6801336A
:1008CC007B607B68022BF4DD00BF00BF0C37BD469C
:1008DC0080BC7047980000208C00002080B400AFD2
:1008EC00024B1B681846BD4680BC70479800002020
:1008FC0080B500AF00F032FC0346002B0DD0094B45
:10090C001B685A1C084B83FB02135911D317CB1AC3
:10091C00642101FB03F3D31A00E00023014A1360A6
:10092C0000BF80BD980000201F85EB5180B582B0C0
:10093C0000AF00237B6007E0084A7B681344002269
:10094C001A707B6801337B607B68022BF4DDFFF748
:10095C00A7FF00BF0837BD4680BD00BF8800002040
:10096C0080B582B000AF0346FB71FB79304AD35C93
:10097C00022B3BD0022B57DC002B02D0012B16D0C4
:10098C0052E0FB79184600F001F90346002B46D0E3
:10099C00FB79274A0121D154FB79012B01D1FFF7B7
:1009AC00A7FFFB79234A012142F8231037E0FB799A
:1009BC00184600F0EBF80346002B04D1FB791C4AD7
:1009CC000021D1542DE0FB79184600F0F9F80346CC
:1009DC00002B26D0FB79164A0221D154FB79012B2E
:1009EC001FD14FF4C87000F0C7FA1AE0FB79184613
:1009FC0000F0CCF80346002B03D1FB790C4A002104
:100A0C00D154FB79012B0ED10B4B1B68002B0AD058
:100A1C004FF4C87000F0B0FAFFF76AFF03E000BFB4
:100A2C0002E000BF00E000BF00BF0837BD4680BD3C
:100A3C00880000208C0000205800002080B483B077
:100A4C0000AF0346FB71FB79054AD35C022B0CBF4C
:100A5C0001230023DBB218460C37BD4680BC70471F
:100A6C008800002080B485B000AF0346FB71FB7991
:100A7C00074A52F82330FB60FB79054A002142F803
:100A8C002310FB68DBB218461437BD4680BC704798
:100A9C008C00002090B583B000AF0023FB7161E0A7
:100AAC00FA79FB793349895C334AD154FB79022BAF
:100ABC001AD0022B22DC002B02D0012B0AD01DE015
:100ACC00FC7910212D4801F06DF803461A46294B8C
:100ADC001A5513E0FC792021284801F063F80346ED
:100AEC001A46244B1A5509E0FC794021234801F0A1
:100AFC0059F803461A461F4B1A5500BFFB791D4A7D
:100B0C00D25CFB791C49CB5C9A4205D1FA79FB7912
:100B1C001849895C1A4AD154FB79194AD35C002BC9
:100B2C0014D1FB79174A32F81330632B09D8FB79AF
:100B3C00144A32F81320013291B2124A22F81310DF
:100B4C000DE0FB79104A0121D15408E0FB790D4AE4
:100B5C00002122F81310FB790B4A0021D154FB79A8
:100B6C000133FB71FB79022B9AD900BF00BF0C3704
:100B7C00BD4690BD3C00002040000020000C014010
:100B8C0038000020480000204400002080B483B0CE
:100B9C0000AF0346FB71FB79022B01D9002307E060
:100BAC00FB79064AD35C002B0CBF01230023DBB27C
:100BBC0018460C37BD4680BC704700BF380000207B
:100BCC0080B483B000AF0346FB71FB79022B01D9D3
:100BDC00FF2307E0FB79064AD35C012B0CBF0123F2
:100BEC000023DBB218460C37BD4680BC704700BFF3
:100BFC004400002080B582B000AF00F0E9FC00F0AA
:100C0C0023F800F0A9F800F05BF80E4801F03EFC68
:100C1C0000F006FAFFF78AFE00F076FA00237B60FC
:100C2C0007E07B68DBB21846FFF79AFE7B6801335E
:100C3C007B607B68022BF4DDFFF712FE00F0C4FB37
:100C4C00ECE700BFA000002080B590B000AF07F12A
:100C5C00180328220021184601F0D4FF3B1D002266
:100C6C001A605A609A60DA601A610223BB61012330
:100C7C00BB621023FB6200237B6307F11803184649
:100C8C0000F0D8FF0346002B01D000F0C5F80F236D
:100C9C007B600023BB600023FB6000233B610023CF
:100CAC007B613B1D0021184601F044FA0346002BE2
:100CBC0001D000F0B1F800BF4037BD4680BD000048
:100CCC0080B586B000AF07F1080300221A605A60A5
:100CDC009A60DA603B4600221A605A601D4B4FF056
:100CEC0080421A601B4B41F63F725A60194B00222E
:100CFC009A60184B0922DA60164B00221A61154BC8
:100D0C0000229A61134801F071FB0346002B01D0BD
:100D1C0000F082F84FF48053BB6007F108031946CA
:100D2C000C4801F007FD0346002B01D000F074F8CD
:100D3C0000233B6000237B603B461946054801F0CD
:100D4C00D3FE0346002B01D000F066F800BF183725
:100D5C00BD4680BDA000002080B586B000AF07F175
:100D6C00080300221A605A609A60DA60274B9B696C
:100D7C00264A43F004039361244B9B6903F004035C
:100D8C007B607B68214B9B69204A43F0080393618D
:100D9C001E4B9B6903F008033B603B68002243F643
:100DAC00FC711B4800F015FF00228F21194800F040
:100DBC0010FF43F6FC73BB600123FB6000233B6117
:100DCC0002237B6107F108031946114800F070FDFE
:100DDC008F23BB600123FB6000233B6102237B61FB
:100DEC0007F1080319460B4800F062FD7023BB6045
:100DFC000023FB6001233B6107F1080319460548FA
:100E0C0000F056FD00BF1837BD4680BD00100240F3
:100E1C0000080140000C014080B400AF72B600BF66
:100E2C00FEE7000080B485B000AF154B9B69144AF7
:100E3C0043F001039361124B9B6903F00103BB6008
:100E4C00BB680F4BDB690E4A43F08053D3610C4BEC
:100E5C00DB6903F080537B607B680A4B5B68FB604B
:100E6C00FB6823F0E063FB60FB6843F08063FB608E
:100E7C00044AFB68536000BF1437BD4680BC704702
:100E8C00001002400000014080B584B000AF7860D3
:100E9C007B681B68B3F1804F13D10C4BDB690B4A99
:100EAC0043F00103D361094BDB6903F00103FB60E1
:100EBC00FB68002200211C2000F0C3FC1C2000F069
:100ECC00DCFC00BF1037BD4680BD00BF00100240E7
:100EDC0080B400AFFEE780B400AFFEE780B400AF93
:100EEC00FEE780B400AFFEE780B400AFFEE780B44D
:100EFC0000AF00BFBD4680BC704780B400AF00BFE0
:100F0C00BD4680BC704780B400AF00BFBD4680BCFE
:100F1C00704780B500AF00F0A1FB00BF80BD0000A2
:100F2C0080B500AF024801F0FDFA00BF80BD00BFE4
:100F3C00A000002080B400AF00BFBD4680BC70474D
:100F4C0080B483B000AF78607B68084A82FB0312E0
:100F5C009210DB17D31A064A1360064B00221A6054
:100F6C0000BF0C37BD4680BC704700BF6766666625
:100F7C00600000208400002080B483B000AF786053
:100F8C007B68084A82FB03129210DB17D31A064ABD
:100F9C001360064B00221A6000BF0C37BD4680BCA4
:100FAC00704700BF6766666650000020580000203E
:100FBC0080B483B000AF78607B68084A82FB031270
:100FCC009210DB17D31A064A1360064B00221A60E4
:100FDC0000BF0C37BD4680BC704700BF67666666B5
:100FEC005C0000207800002080B483B000AF7860F3
:100FFC007B68084A82FB03129210DB17D31A064A4D
:10100C001360064B00221A6000BF0C37BD4680BC33
:10101C00704700BF67666666800000207C00002079
:10102C0080B500AF4FF47A70FFF78AFF4FF4C870A9
:10103C00FFF7A2FF4FF4FA70FFF7BAFF2820FFF773
:10104C00D3FF00BF80BD000080B582B000AF7860D8
:10105C007B681B68B3F1804F01D1FFF71BFD00F0DB
:10106C0095F80346002B0CD01F4B1B68013B1E4A06
:10107C0013601D4B1B68002B26D11C4B01221A60E0
:10108C0022E000F06BF80346002B1DD0184B1B68B8
:10109C00013B174A1360164B1B68002B02D1154BF2
:1010AC0001221A600120FFF7C9FC0346002B0BD06C
:1010BC00114B1B68013B104A13600F4B1B68002B34
:1010CC0002D10E4B01221A600D4B1B68013B0C4ADE
:1010DC0013600B4B1B68002B02D10A4B01221A60C8
:1010EC0000BF0837BD4680BD600000208400002092
:1010FC005C000020780000205000002058000020E8
:10110C00800000207C00002080B400AF034B05223F
:10111C001A7000BFBD4680BC704700BF9C00002009
:10112C0080B500AF084B00221A704FF47A70FFF7AD
:10113C0007FF064B1B68064A1360064B1B68064AE2
:10114C00136000BF80BD00BF4E00002004000020D3
:10115C00E80000200C000020EC00002080B400AF60
:10116C00094B1B78022B07D0074B1B78032B03D0A2
:10117C00054B1B78042B01D1012300E000231846FA
:10118C00BD4680BC704700BF9C00002080B400AFFF
:10119C00054B1B78012B0CBF01230023DBB2184637
:1011AC00BD4680BC704700BF9C00002080B500AFDE
:1011BC00414B1B68002B0DD04FF47A70FFF7C0FE2B
:1011CC003E4B1B68013B3D4A13603D4B1B68013B8A
:1011DC003B4A13603B4B1B78032B62D801A252F89D
:1011EC0023F000BF0112000825120008511200085C
:1011FC0075120008324B1B68002B4BDA314B012265
:10120C001A700020FEF79CFF0520FEF799FF2E4B6D
:10121C001B682B4A13603DE0294B1B68002B3BDA03
:10122C00284B02221A700120FEF78AFF0320FEF7DA
:10123C0087FF264B1B68214A1360254B1B68204AED
:10124C00136029E01D4B1B68002B27DA1D4B032272
:10125C001A700220FEF774FF0320FEF771FF1A4B81
:10126C001B68164A136019E0144B1B68002B17DA25
:10127C00144B00221A700020FEF762FF0420FEF7C8
:10128C005FFF134B1B680D4A1360104B1B680C4A15
:10129C00136005E000BF04E000BF02E000BF00E007
:1012AC0000BF064B1B68064A126811461846FFF72A
:1012BC009BFA00BF80BD00BF84000020E800002026
:1012CC00EC0000204E000020080000200C00002044
:1012DC000400002090B583B000AF0346FB71FB798E
:1012EC00002B0BD10220FFF7BDFB0346002B22D0B5
:1012FC00FFF7F4FA03461D4A13601CE0FB79022B3E
:10130C000BD10220FFF7AEFB0346002B13D0FFF7E7
:10131C00E5FA0346164A13600DE0FB79012B0AD15E
:10132C000220FFF79FFB0346002B04D0FFF7D6FAF1
:10133C000346104A1360104B1B68002B07D04FF468
:10134C00FA70FFF735FEFB791846FEF79FFF0B4B43
:10135C001B781C46FFF7C2FA034619462046FFF7D6
:10136C0043FA00BF0C37BD4690BD00BF04000020FF
:10137C00080000200C000020780000209C000020B9
:10138C0080B500AF4FF4FA70FFF712FEFFF788FA42
:10139C0000BF80BD80B400AF084B1A68084B1B68B7
:1013AC0013445A1C074B1B689A420CBF01230023A1
:1013BC00DBB21846BD4680BC704700BF0800002059
:1013CC000C0000200400002098B500AF674B1B7880
:1013DC00013B052B00F2C88001A252F823F000BF9C
:1013EC004714000883140008BF140008FB140008FD
:1013FC00051400084F1500085C4B01221A70FFF70A
:10140C000FFE5B4B04221A605A4B01221A605A4B96
:10141C0002221A600020FEF793FE0420FEF790FED5
:10142C00FFF73EFAFFF77CFE544B1B68544A1268D8
:10143C0011461846FFF7D8F996E0FFF7B7FE0020E3
:10144C00FFF710FB0346002B00F08580474B022270
:10145C001A70FFF765FE0020FEF7F0FEFFF720FA8A
:10146C00424B1B781C46FFF739FA034619462046B7
:10147C00FFF7BAF96FE00020FFF72CFF0020FFF711
:10148C00F1FA0346002B68D0384B03221A70FFF791
:10149C0077FF0220FEF7D2FEFFF702FA334B1B78E0
:1014AC001C46FFF71BFA034619462046FFF79CF92A
:1014BC0053E00220FFF70EFF0020FFF7D3FA03469C
:1014CC00002B4CD0294B04221A70FFF759FF012036
:1014DC00FEF7B4FEFFF7E4F9244B1B781C46FFF72C
:1014EC00FDF9034619462046FFF77EF937E0012047
:1014FC00FFF7F0FE0020FFF7B5FA0346002B30D0C3
:10150C00FFF748FF0346002B13D0184B01221A702B
:10151C000020FEF715FE0420FEF712FEFFF700FE7A
:10152C00164B1B68164A126811461846FFF75CF9F1
:10153C0017E00E4B06221A7063216320FFF754F953
:10154C000FE00020FFF78EFA0346002B0BD0074B61
:10155C0005221A7007E000BF06E000BF04E000BFE0
:10156C0002E000BF00E000BF00BF98BD9C0000205F
:10157C0004000020080000200C000020E8000020DF
:10158C00EC000020FFF7D6FC0B480C490C4A00235A
:10159C0002E0D458C4500433C4188C42F9D3094A1D
:1015AC00094C002301E013600432A242FBD301F08A
:1015BC0005FBFFF71FFB7047000000201800002000
:1015CC00642C000818000020F4000020FEE7000046
:1015DC0080B500AF084B1B68074A43F0100313603B
:1015EC00032000F023F90F2000F008F8FFF71AFC95
:1015FC000023184680BD00BF0020024080B582B099
:10160C0000AF7860124B1A68124B1B7819464FF4D6
:10161C007A73B3FBF1F3B2FBF3F3184600F03BF92A
:10162C000346002B01D001230EE07B680F2B0AD858
:10163C00002279684FF0FF3000F003F9064A7B680E
:10164C001360002300E0012318460837BD4680BD17
:10165C0000000020140000201000002080B400AF17
:10166C00054B1B781A46054B1B681344034A136041
:10167C0000BFBD4680BC704714000020F000002065
:10168C0080B400AF024B1B681846BD4680BC704747
:10169C00F000002080B485B000AF78607B6803F068
:1016AC000703FB600C4BDB68BB60BA684FF6FF03AB
:1016BC001340BB60FB681A02BB68134343F0BF6363
:1016CC0043F40033BB60044ABB68D36000BF1437DB
:1016DC00BD4680BC704700BF00ED00E080B400AF99
:1016EC00044BDB681B0A03F007031846BD4680BC9D
:1016FC00704700BF00ED00E080B483B000AF03463C
:10170C00FB7197F90730002B0BDBFB7903F01F0201
:10171C00064997F907305B09012000FA02F241F8FB
:10172C00232000BF0C37BD4680BC704700E100E0B1
:10173C0080B483B000AF03463960FB7197F9073072
:10174C00002B0ADB3B68DAB20C4997F9073012011F
:10175C00D2B20B4483F800230AE03B68DAB20849A2
:10176C00FB7903F00F03043B1201D2B20B441A763F
:10177C0000BF0C37BD4680BC704700BF00E100E0E5
:10178C0000ED00E080B489B000AFF860B9607A6019
:10179C00FB6803F00703FB61FB69C3F10703042B30
:1017AC0028BF0423BB61FB690433062B02D9FB69F8
:1017BC00033B00E000237B614FF0FF32BB6902FA70
:1017CC0003F3DA43BB681A407B699A404FF0FF3150
:1017DC007B6901FA03F3D9437B680B40134318462A
:1017EC002437BD4680BC704780B582B000AF7860AE
:1017FC007B68013BB3F1807F01D301230FE00A4AE0
:10180C007B68013B53600F214FF0FF30FFF790FFD7
:10181C00054B00229A60044B07221A6000231846DD
:10182C000837BD4680BD00BF10E000E080B582B037
:10183C0000AF78607868FFF72DFF00BF0837BD4612
:10184C0080BD80B586B000AF0346B9607A60FB738B
:10185C0000237B61FFF742FF78617A68B968786989
:10186C00FFF790FF024697F90F3011461846FFF725
:10187C005FFF00BF1837BD4680BD80B582B000AF9A
:10188C000346FB7197F907301846FFF735FF00BF89
:10189C000837BD4680BD80B582B000AF78607868EF
:1018AC00FFF7A2FF034618460837BD4680BD00006F
:1018BC0080B48BB000AF7860396000237B6200236A
:1018CC003B6248E101227B6A02FA03F3FB613B684D
:1018DC001B68FA691340BB61BA69FB699A4240F014
:1018EC0037813B685B68A34A93425ED0A14A93421E
:1018FC0075D8A14A934258D09F4A93426FD89F4AB9
:10190C00934252D09D4A934269D89D4A93424CD0FF
:10191C009B4A934263D89B4A934246D0994A93423E
:10192C005DD8122B2AD8122B59D801A252F823F0C9
:10193C00B719000891190008A3190008E519000847
:10194C00EB190008EB190008EB190008EB1900085B
:10195C00EB190008EB190008EB190008EB1900084B
:10196C00EB190008EB190008EB190008EB1900083B
:10197C00EB19000899190008AD190008824A934226
:10198C0013D02CE03B68DB683B6229E03B68DB68EA
:10199C0004333B6224E03B68DB6808333B621FE0A6
:1019AC003B68DB680C333B621AE03B689B68002B9E
:1019BC0002D104233B6213E03B689B68012B05D1E9
:1019CC0008233B627B68FA691A6109E008233B62D1
:1019DC007B68FA695A6103E000233B6200E000BFB8
:1019EC00BB69FF2B01D87B6801E07B6804337B610A
:1019FC00BB69FF2B02D87B6A9B0002E07B6A083B29
:101A0C009B003B617B691A680F213B6901FA03F368
:101A1C00DB431A40396A3B6901FA03F31A437B69C9
:101A2C001A603B685B6803F08053002B00F09080D9
:101A3C00564B9B69554A43F001039361534B9B6989
:101A4C0003F00103BB60BB68514A7B6A9B080233FD
:101A5C0052F82330FB607B6A03F003039B000F22D8
:101A6C0002FA03F3DB43FA681340FB607B68494AD4
:101A7C0093420DD07B68484A934207D07B68474A13
:101A8C00934201D1022304E0032302E0012300E08E
:101A9C0000237A6A02F0030292009340FA6813431F
:101AAC00FB603B497B6A9B080233FA6841F82320B0
:101ABC003B685B6803F48013002B06D0384B9A68A4
:101ACC003749BB6913438B6006E0354B9A68BB6999
:101ADC00DB43334913408B603B685B6803F40013B2
:101AEC00002B06D02E4BDA682D49BB691343CB6013
:101AFC0006E02B4BDA68BB69DB4329491340CB600A
:101B0C003B685B6803F40033002B06D0244B5A6807
:101B1C002349BB6913434B6006E0214B5A68BB69F0
:101B2C00DB431F4913404B603B685B6803F4803315
:101B3C00002B06D01A4B1A681949BB6913430B606A
:101B4C0006E0174B1A68BB69DB43154913400B6061
:101B5C007B6A01337B623B681A687B6A22FA03F367
:101B6C00002B7FF4AFAE00BF00BF2C37BD4680BC4E
:101B7C00704700BF0000321000003110000022102E
:101B8C000000211000001210000011100010024083
:101B9C000000014000080140000C01400010014011
:101BAC000004014080B485B000AF78600B467B80A8
:101BBC007B689A687B881340002B02D00123FB734F
:101BCC0001E00023FB73FB7B18461437BD4680BC39
:101BDC00704780B483B000AF78600B467B801346AF
:101BEC007B707B78002B03D07A887B681A6103E0CA
:101BFC007B881A047B681A6100BF0C37BD4680BC19
:101C0C00704780B485B000AF78600B467B807B68F2
:101C1C00DB68FB607A88FB6813401A04FB68D943C5
:101C2C007B880B401A437B681A6100BF1437BD4692
:101C3C0080BC704780B586B000AF78607B68002BA5
:101C4C0001D101236CE27B681B6803F00103002BBC
:101C5C0000F08780924B5B6803F00C03042B0CD0D4
:101C6C008F4B5B6803F00C03082B12D18C4B5B6819
:101C7C0003F48033B3F5803F0BD1894B1B6803F41D
:101C8C000033002B6CD07B685B68002B68D1012380
:101C9C0046E27B685B68B3F5803F06D1804B1B68DE
:101CAC007F4A43F4803313602EE07B685B68002B23
:101CBC000CD17B4B1B687A4A23F480331360784B2E
:101CCC001B68774A23F4802313601DE07B685B68F4
:101CDC00B3F5A02F0CD1724B1B68714A43F48023CF
:101CEC0013606F4B1B686E4A43F4803313600BE038
:101CFC006B4B1B686A4A23F480331360684B1B6878
:101D0C00674A23F4802313607B685B68002B13D035
:101D1C00FFF7B6FC386108E0FFF7B2FC02463B69FE
:101D2C00D31A642B01D90323FAE15D4B1B6803F42E
:101D3C000033002BF0D014E0FFF7A2FC386108E070
:101D4C00FFF79EFC02463B69D31A642B01D903238F
:101D5C00E6E1534B1B6803F40033002BF0D100E099
:101D6C0000BF7B681B6803F00203002B63D04C4B55
:101D7C005B6803F00C03002B0BD0494B5B6803F042
:101D8C000C03082B1CD1464B5B6803F48033002BEF
:101D9C0016D1434B1B6803F00203002B05D07B6864
:101DAC001B69012B01D00123BAE13D4B1B6823F0C9
:101DBC00F8027B685B69DB00394913430B603AE03E
:101DCC007B681B69002B20D0364B01221A60FFF771
:101DDC0057FC386108E0FFF753FC02463B69D31A05
:101DEC00022B01D903239BE12D4B1B6803F002034B
:101DFC00002BF0D02A4B1B6823F0F8027B685B6940
:101E0C00DB00274913430B6015E0264B00221A60B8
:101E1C00FFF736FC386108E0FFF732FC02463B69FD
:101E2C00D31A022B01D903237AE11D4B1B6803F053
:101E3C000203002BF0D17B681B6803F00803002B16
:101E4C003AD07B689B69002B19D0174B01221A6082
:101E5C00FFF716FC386108E0FFF712FC02463B69FD
:101E6C00D31A022B01D903235AE10D4B5B6A03F001
:101E7C000203002BF0D0012000F09AFA1CE00A4B70
:101E8C0000221A60FFF7FCFB38610FE0FFF7F8FB4C
:101E9C0002463B69D31A022B08D9032340E100BF49
:101EAC000010024000004242800442429E4B5B6A9A
:101EBC0003F00203002BE9D17B681B6803F00403D9
:101ECC00002B00F0A6800023FB75974BDB6903F019
:101EDC008053002B0DD1944BDB69934A43F0805314
:101EEC00D361914BDB6903F08053BB60BB6801236A
:101EFC00FB758E4B1B6803F48073002B18D18B4B36
:101F0C001B688A4A43F480731360FFF7B9FB38618E
:101F1C0008E0FFF7B5FB02463B69D31A642B01D9E5
:101F2C000323FDE0814B1B6803F48073002BF0D07E
:101F3C007B68DB68012B06D17B4B1B6A7A4A43F02A
:101F4C00010313622DE07B68DB68002B0CD1764B10
:101F5C001B6A754A23F001031362734B1B6A724AA6
:101F6C0023F0040313621CE07B68DB68052B0CD1A7
:101F7C006D4B1B6A6C4A43F0040313626A4B1B6A79
:101F8C00694A43F0010313620BE0674B1B6A664A14
:101F9C0023F001031362644B1B6A634A23F00403AE
:101FAC0013627B68DB68002B15D0FFF769FB386187
:101FBC000AE0FFF765FB02463B69D31A41F288320F
:101FCC00934201D90323ABE0574B1B6A03F0020386
:101FDC00002BEED014E0FFF753FB38610AE0FFF75B
:101FEC004FFB02463B69D31A41F28832934201D926
:101FFC00032395E04C4B1B6A03F00203002BEED13C
:10200C00FB7D012B05D1484BDB69474A23F08053FC
:10201C00D3617B68DB69002B00F08180424B5B68ED
:10202C0003F00C03082B61D07B68DB69022B46D1D3
:10203C003F4B00221A60FFF723FB386108E0FFF7E3
:10204C001FFB02463B69D31A022B01D9032367E01D
:10205C00354B1B6803F00073002BF0D17B681B6AB7
:10206C00B3F5803F08D1304B5B6823F400327B68BA
:10207C009B682D4913434B602B4B5B6823F4741204
:10208C007B68196A7B685B6A0B43274913434B6077
:10209C00274B01221A60FFF7F3FA386108E0FFF7CB
:1020AC00EFFA02463B69D31A022B01D9032337E01E
:1020BC001D4B1B6803F00073002BF0D02FE01C4B62
:1020CC0000221A60FFF7DCFA386108E0FFF7D8FA53
:1020DC0002463B69D31A022B01D9032320E0124B91
:1020EC001B6803F00073002BF0D118E07B68DB69F0
:1020FC00012B01D1012313E00B4B5B68FB60FB68E8
:10210C0003F480327B681B6A9A4206D1FB6803F4A5
:10211C0070127B685B6A9A4201D0012300E00023B5
:10212C0018461837BD4680BD0010024000700040B4
:10213C006000424280B584B000AF786039607B6843
:10214C00002B01D10123D0E06A4B1B6803F007037D
:10215C003A689A4210D9674B1B6823F0070265490D
:10216C003B6813430B60634B1B6803F007033A682F
:10217C009A4201D00123B8E07B681B6803F002038C
:10218C00002B20D07B681B6803F00403002B05D0C8
:10219C00594B5B68584A43F4E06353607B681B6897
:1021AC0003F00803002B05D0534B5B68524A43F4F1
:1021BC0060535360504B5B6823F0F0027B689B6864
:1021CC004D4913434B607B681B6803F00103002BE4
:1021DC0040D07B685B68012B07D1474B1B6803F42D
:1021EC000033002B15D101237FE07B685B68022B49
:1021FC0007D1414B1B6803F00073002B09D101235D
:10220C0073E03D4B1B6803F00203002B01D101234B
:10221C006BE0394B5B6823F003027B685B683649E3
:10222C0013434B60FFF72CFAF8600AE0FFF728FA2B
:10223C000246FB68D31A41F28832934201D9032338
:10224C0053E02D4B5B6803F00C027B685B689B00D2
:10225C009A42EBD1274B1B6803F007033A689A426A
:10226C0010D2244B1B6823F0070222493B6813430E
:10227C000B60204B1B6803F007033A689A4201D0AD
:10228C00012332E07B681B6803F00403002B08D0A9
:10229C00194B5B6823F4E0627B68DB6816491343D7
:1022AC004B607B681B6803F00803002B09D0124BB2
:1022BC005B6823F460527B681B69DB000E49134397
:1022CC004B6000F021F802460B4B5B681B0903F0D6
:1022DC000F030A49CB5C22FA03F3094A1360094B3A
:1022EC001B681846FFF78AF9002318461037BD46BD
:1022FC0080BD00BF0020024000100240382C0008B6
:10230C00000000201000002080B487B000AF002334
:10231C00FB600023BB6000237B6100237B600023F8
:10232C003B611E4B5B68FB60FB6803F00C03042BEA
:10233C0002D0082B03D027E0194B3B6127E0FB6848
:10234C009B0C03F00F03174AD35C7B60FB6803F410
:10235C008033002B10D0114B5B685B0C03F0010336
:10236C00114AD35CBB607B680D4A02FB03F2BB686D
:10237C00B2FBF3F37B6104E07B680C4A02FB03F3D2
:10238C007B617B693B6102E0054B3B6100BF3B69B4
:10239C0018461C37BD4680BC704700BF0010024079
:1023AC0000127A00482C0008582C000800093D0047
:1023BC0080B485B000AF78600A4B1B680A4AA2FB58
:1023CC0003235B0A7A6802FB03F3FB6000BFFB6824
:1023DC005A1EFA60002BF9D100BF00BF1437BD465E
:1023EC0080BC704700000020D34D621080B582B0D5
:1023FC0000AF78607B68002B01D1012341E07B6842
:10240C0093F83D30DBB2002B06D17B68002283F8B9
:10241C003C207868FEF738FD7B68022283F83D206B
:10242C007B681A687B6804331946104600F06EFA14
:10243C007B68012283F846207B68012283F83E20CA
:10244C007B68012283F83F207B68012283F84020BF
:10245C007B68012283F841207B68012283F84220AB
:10246C007B68012283F843207B68012283F8442097
:10247C007B68012283F845207B68012283F83D208C
:10248C00002318460837BD4680BD000080B485B0D7
:10249C0000AF78607B6893F83D30DBB2012B01D044
:1024AC00012335E07B68022283F83D207B681B68A2
:1024BC00DA687B681B6842F00102DA607B681B6893
:1024CC00164A934209D07B681B68B3F1804F04D045
:1024DC007B681B68124A934211D17B681B689B680E
:1024EC0003F00703FB60FB68062B10D07B681B68AE
:1024FC001A687B681B6842F001021A6007E07B686F
:10250C001B681A687B681B6842F001021A60002382
:10251C0018461437BD4680BC704700BF002C0140E4
:10252C000004004080B582B000AF78607B681B6807
:10253C001B6903F00203022B22D17B681B68DB684A
:10254C0003F00203022B1BD17B681B686FF00202A5
:10255C001A617B6801221A777B681B689B6903F000
:10256C000303002B03D0786800F0B4F905E0786819
:10257C0000F0A7F9786800F0B6F97B6800221A77AA
:10258C007B681B681B6903F00403042B22D17B6856
:10259C001B68DB6803F00403042B1BD17B681B68EE
:1025AC006FF004021A617B6802221A777B681B6841
:1025BC009B6903F44073002B03D0786800F08AF910
:1025CC0005E0786800F07DF9786800F08CF97B689C
:1025DC0000221A777B681B681B6903F00803082B21
:1025EC0022D17B681B68DB6803F00803082B1BD126
:1025FC007B681B686FF008021A617B6804221A77EB
:10260C007B681B68DB6903F00303002B03D078683D
:10261C0000F060F905E0786800F053F9786800F094
:10262C0062F97B6800221A777B681B681B6903F0D0
:10263C001003102B22D17B681B68DB6803F010039E
:10264C00102B1BD17B681B686FF010021A617B6822
:10265C0008221A777B681B68DB6903F44073002B34
:10266C0003D0786800F036F905E0786800F029F9B5
:10267C00786800F038F97B6800221A777B681B6851
:10268C001B6903F00103012B0ED17B681B68DB680F
:10269C0003F00103012B07D17B681B686FF001026B
:1026AC001A617868FEF7D0FC7B681B681B6903F025
:1026BC008003802B0ED17B681B68DB6803F08003E2
:1026CC00802B07D17B681B686FF080021A617868D9
:1026DC0000F06BFA7B681B681B6903F04003402B0E
:1026EC000ED17B681B68DB6803F04003402B07D1DD
:1026FC007B681B686FF040021A61786800F0FCF888
:10270C007B681B681B6903F02003202B0ED17B68B0
:10271C001B68DB6803F02003202B07D17B681B6848
:10272C006FF020021A61786800F036FA00BF0837A3
:10273C00BD4680BD80B584B000AF786039600023A1
:10274C00FB737B6893F83C30012B01D10223B4E07E
:10275C007B68012283F83C207B68022283F83D20B1
:10276C007B681B689B68BB60BB6823F07703BB600E
:10277C00BB6823F47F43BB607B681B68BA689A60B4
:10278C003B681B68B3F5005F3ED0B3F5005F00F209
:10279C008780B3F5805F00F08680B3F5805F7FD8CB
:1027AC00702B1AD0702B7BD8602B50D0602B77D825
:1027BC00502B3CD0502B73D8402B58D0402B6FD87B
:1027CC00302B64D0302B6BD8202B60D0202B67D8CB
:1027DC00002B5CD0102B5AD062E07B6818683B68E9
:1027EC0099683B685A683B68DB6800F05EF97B6867
:1027FC001B689B68BB60BB6843F07703BB607B685E
:10280C001B68BA689A604FE07B6818683B689968E7
:10281C003B685A683B68DB6800F047F97B681B68CB
:10282C009A687B681B6842F480429A603CE07B6843
:10283C0018683B6859683B68DB681A4600F0BEF8BC
:10284C007B681B685021184600F015F92CE07B685A
:10285C0018683B6859683B68DB681A4600F0DCF87E
:10286C007B681B686021184600F005F91CE07B684A
:10287C0018683B6859683B68DB681A4600F09EF89C
:10288C007B681B684021184600F0F5F80CE07B686B
:10289C001A683B681B681946104600F0ECF803E018
:1028AC000123FB7300E000BF7B68012283F83D200D
:1028BC007B68002283F83C20FB7B18461037BD4612
:1028CC0080BD80B483B000AF786000BF0C37BD46CC
:1028DC0080BC704780B483B000AF786000BF0C3709
:1028EC00BD4680BC704780B483B000AF786000BF39
:1028FC000C37BD4680BC704780B483B000AF7860A5
:10290C0000BF0C37BD4680BC7047000080B485B05A
:10291C0000AF786039607B681B68FB607B68254A78
:10292C00934207D07B68B3F1804F03D07B68224A77
:10293C00934208D1FB6823F07003FB603B685B6833
:10294C00FA681343FB607B681A4A934207D07B6892
:10295C00B3F1804F03D07B68174A934208D1FB68D0
:10296C0023F44073FB603B68DB68FA681343FB603D
:10297C00FB6823F080023B685B691343FB607B6858
:10298C00FA681A603B689A687B68DA623B681A6876
:10299C007B689A627B68074A934203D13B681A6949
:1029AC007B681A637B6801225A6100BF1437BD46ED
:1029BC0080BC7047002C01400004004080B487B0FC
:1029CC0000AFF860B9607A60FB681B6A7B61FB68DA
:1029DC001B6A23F00102FB681A62FB689B693B616E
:1029EC003B6923F0F0033B617B681B013A6913439D
:1029FC003B617B6923F00A037B617A69BB681343F3
:102A0C007B61FB683A699A61FB687A691A6200BF5C
:102A1C001C37BD4680BC704780B487B000AFF860EF
:102A2C00B9607A60FB681B6A7B61FB681B6A23F0E8
:102A3C001002FB681A62FB689B693B613B6923F4DB
:102A4C0070433B617B681B033A6913433B617B69B1
:102A5C0023F0A0037B61BB681B017A6913437B6184
:102A6C00FB683A699A61FB687A691A6200BF1C3785
:102A7C00BD4680BC704780B485B000AF78603960CB
:102A8C007B689B68FB60FB6823F07003FB603A6813
:102A9C00FB68134343F00703FB607B68FA689A609A
:102AAC0000BF1437BD4680BC704780B487B000AF00
:102ABC00F860B9607A603B60FB689B687B617B69FE
:102ACC0023F47F437B613B681A027B681A43BB6823
:102ADC0013437A6913437B61FB687A699A6000BF80
:102AEC001C37BD4680BC704780B485B000AF7860A1
:102AFC0039607B6893F83C30012B01D1022341E013
:102B0C007B68012283F83C207B68022283F83D20FD
:102B1C007B681B685B68FB607B681B689B68BB60A1
:102B2C00FB6823F07003FB603B681B68FA68134377
:102B3C00FB607B681B68FA685A607B681B68144AE8
:102B4C00934209D07B681B68B3F1804F04D07B683B
:102B5C001B68104A93420CD1BB6823F08003BB6006
:102B6C003B685B68BA681343BB607B681B68BA68D8
:102B7C009A607B68012283F83D207B68002283F8F1
:102B8C003C20002318461437BD4680BC704700BF5C
:102B9C00002C01400004004080B483B000AF78608A
:102BAC0000BF0C37BD4680BC704780B483B000AF0B
:102BBC00786000BF0C37BD4680BC704770B50026EE
:102BCC000C4D0D4C641BA410A64209D100F022F848
:102BDC0000260A4D0A4C641BA410A64205D170BDF8
:102BEC0055F8043B98470136EEE755F8043B9847F7
:102BFC000136F2E75C2C00085C2C00085C2C000809
:102C0C00602C000803460244934200D1704703F83D
:102C1C00011BF9E7F8B500BFF8BC08BC9E4670472D
:0C2C2C00F8B500BFF8BC08BC9E4670471D
:102C38000000000000000000010203040607080964
:102C480002030405060708090A0B0C0D0E0F1010E5
:042C58000102000075
:042C5C00310100083A
:042C60000D0100085A
:102C64000024F40004000000010000000200000041
:082C7400100000000100000047
:040000050800159149
:00000001FF
